{
  "contractName": "SimpleStorage",
  "abi": [
    {
      "inputs": [
        {
          "internalType": "uint256",
          "name": "_num",
          "type": "uint256"
        }
      ],
      "stateMutability": "nonpayable",
      "type": "constructor"
    },
    {
      "inputs": [],
      "name": "storedData",
      "outputs": [
        {
          "internalType": "uint256",
          "name": "",
          "type": "uint256"
        }
      ],
      "stateMutability": "view",
      "type": "function",
      "constant": true
    },
    {
      "inputs": [],
      "name": "getStoredData",
      "outputs": [
        {
          "internalType": "uint256",
          "name": "",
          "type": "uint256"
        }
      ],
      "stateMutability": "view",
      "type": "function",
      "constant": true
    },
    {
      "inputs": [
        {
          "internalType": "uint256",
          "name": "x",
          "type": "uint256"
        }
      ],
      "name": "setStoredData",
      "outputs": [],
      "stateMutability": "nonpayable",
      "type": "function"
    }
  ],
  "bytecode": "0x608060405233600160006101000a81548173ffffffffffffffffffffffffffffffffffffffff021916908373ffffffffffffffffffffffffffffffffffffffff16021790555034801561005157600080fd5b50604051610383380380610383833981810160405281019061007391906100bb565b80600081905550506100e8565b600080fd5b6000819050919050565b61009881610085565b81146100a357600080fd5b50565b6000815190506100b58161008f565b92915050565b6000602082840312156100d1576100d0610080565b5b60006100df848285016100a6565b91505092915050565b61028c806100f76000396000f3fe608060405234801561001057600080fd5b50600436106100415760003560e01c80632a1afcd9146100465780632f9530f714610064578063b69ca9a114610080575b600080fd5b61004e61009e565b60405161005b9190610160565b60405180910390f35b61007e600480360381019061007991906101ac565b6100a4565b005b61008861013e565b6040516100959190610160565b60405180910390f35b60005481565b600160009054906101000a900473ffffffffffffffffffffffffffffffffffffffff1673ffffffffffffffffffffffffffffffffffffffff163373ffffffffffffffffffffffffffffffffffffffff1614610134576040517f08c379a000000000000000000000000000000000000000000000000000000000815260040161012b90610236565b60405180910390fd5b8060008190555050565b60008054905090565b6000819050919050565b61015a81610147565b82525050565b60006020820190506101756000830184610151565b92915050565b600080fd5b61018981610147565b811461019457600080fd5b50565b6000813590506101a681610180565b92915050565b6000602082840312156101c2576101c161017b565b5b60006101d084828501610197565b91505092915050565b600082825260208201905092915050565b7f4e6f7420746865206f776e657221000000000000000000000000000000000000600082015250565b6000610220600e836101d9565b915061022b826101ea565b602082019050919050565b6000602082019050818103600083015261024f81610213565b905091905056fea26469706673582212205e86a11ac813eacb752db9fdbc186167b4c912d38e6a7f65fd08d0447d45e0ab64736f6c634300080a0033",
  "immutableReferences": {},
  "source": "// SPDX-License-Identifier: MIT\npragma solidity >=0.4.22 <0.9.0;\n\ncontract SimpleStorage {\n    uint256 public storedData;\n    address owner = msg.sender;\n\n    constructor(uint256 _num) public {\n        storedData = _num;\n    }\n\n    function getStoredData() public view returns (uint256) {\n        return storedData;\n    }\n\n    function setStoredData(uint256 x) public {\n        require(msg.sender == owner, \"Not the owner!\");\n        storedData = x;\n    }\n}\n",
  "sourcePath": "/Users/janeyou/Documents/Learn_web3/consensys_bootcamp/simpleStorageTddBdd/contracts/SimpleStorage.sol",
  "compiler": {
    "name": "solc",
    "version": "0.8.10+commit.fc410830.Emscripten.clang"
  },
  "schemaVersion": "3.4.4",
  "updatedAt": "2022-01-10T07:30:39.177Z",
  "networkType": "ethereum",
  "devdoc": {
    "kind": "dev",
    "methods": {},
    "version": 1
  },
  "userdoc": {
    "kind": "user",
    "methods": {},
    "version": 1
  }
}